{
  "_format": "hh-sol-artifact-1",
  "contractName": "Domains",
  "sourceName": "contracts/Domains.sol",
  "abi": [
    {
      "inputs": [
        {
          "internalType": "string",
          "name": "_tld",
          "type": "string"
        }
      ],
      "stateMutability": "payable",
      "type": "constructor"
    },
    {
      "inputs": [],
      "name": "AlreadyRegistered",
      "type": "error"
    },
    {
      "inputs": [
        {
          "internalType": "string",
          "name": "name",
          "type": "string"
        }
      ],
      "name": "InvalidName",
      "type": "error"
    },
    {
      "inputs": [],
      "name": "Unauthorized",
      "type": "error"
    },
    {
      "anonymous": false,
      "inputs": [
        {
          "indexed": true,
          "internalType": "address",
          "name": "owner",
          "type": "address"
        },
        {
          "indexed": true,
          "internalType": "address",
          "name": "approved",
          "type": "address"
        },
        {
          "indexed": true,
          "internalType": "uint256",
          "name": "tokenId",
          "type": "uint256"
        }
      ],
      "name": "Approval",
      "type": "event"
    },
    {
      "anonymous": false,
      "inputs": [
        {
          "indexed": true,
          "internalType": "address",
          "name": "owner",
          "type": "address"
        },
        {
          "indexed": true,
          "internalType": "address",
          "name": "operator",
          "type": "address"
        },
        {
          "indexed": false,
          "internalType": "bool",
          "name": "approved",
          "type": "bool"
        }
      ],
      "name": "ApprovalForAll",
      "type": "event"
    },
    {
      "anonymous": false,
      "inputs": [
        {
          "indexed": true,
          "internalType": "address",
          "name": "from",
          "type": "address"
        },
        {
          "indexed": true,
          "internalType": "address",
          "name": "to",
          "type": "address"
        },
        {
          "indexed": true,
          "internalType": "uint256",
          "name": "tokenId",
          "type": "uint256"
        }
      ],
      "name": "Transfer",
      "type": "event"
    },
    {
      "inputs": [
        {
          "internalType": "address",
          "name": "to",
          "type": "address"
        },
        {
          "internalType": "uint256",
          "name": "tokenId",
          "type": "uint256"
        }
      ],
      "name": "approve",
      "outputs": [],
      "stateMutability": "nonpayable",
      "type": "function"
    },
    {
      "inputs": [
        {
          "internalType": "address",
          "name": "owner",
          "type": "address"
        }
      ],
      "name": "balanceOf",
      "outputs": [
        {
          "internalType": "uint256",
          "name": "",
          "type": "uint256"
        }
      ],
      "stateMutability": "view",
      "type": "function"
    },
    {
      "inputs": [
        {
          "internalType": "string",
          "name": "",
          "type": "string"
        }
      ],
      "name": "cloudProviders",
      "outputs": [
        {
          "internalType": "string",
          "name": "",
          "type": "string"
        }
      ],
      "stateMutability": "view",
      "type": "function"
    },
    {
      "inputs": [
        {
          "internalType": "string",
          "name": "",
          "type": "string"
        }
      ],
      "name": "domains",
      "outputs": [
        {
          "internalType": "address",
          "name": "",
          "type": "address"
        }
      ],
      "stateMutability": "view",
      "type": "function"
    },
    {
      "inputs": [
        {
          "internalType": "string",
          "name": "name",
          "type": "string"
        }
      ],
      "name": "getAddress",
      "outputs": [
        {
          "internalType": "address",
          "name": "",
          "type": "address"
        }
      ],
      "stateMutability": "view",
      "type": "function"
    },
    {
      "inputs": [],
      "name": "getAllNames",
      "outputs": [
        {
          "internalType": "string[]",
          "name": "",
          "type": "string[]"
        }
      ],
      "stateMutability": "view",
      "type": "function"
    },
    {
      "inputs": [
        {
          "internalType": "uint256",
          "name": "tokenId",
          "type": "uint256"
        }
      ],
      "name": "getApproved",
      "outputs": [
        {
          "internalType": "address",
          "name": "",
          "type": "address"
        }
      ],
      "stateMutability": "view",
      "type": "function"
    },
    {
      "inputs": [
        {
          "internalType": "string",
          "name": "name",
          "type": "string"
        }
      ],
      "name": "getCloudProvider",
      "outputs": [
        {
          "internalType": "string",
          "name": "",
          "type": "string"
        }
      ],
      "stateMutability": "view",
      "type": "function"
    },
    {
      "inputs": [
        {
          "internalType": "string",
          "name": "name",
          "type": "string"
        }
      ],
      "name": "getRecord",
      "outputs": [
        {
          "internalType": "string",
          "name": "",
          "type": "string"
        }
      ],
      "stateMutability": "view",
      "type": "function"
    },
    {
      "inputs": [
        {
          "internalType": "address",
          "name": "owner",
          "type": "address"
        },
        {
          "internalType": "address",
          "name": "operator",
          "type": "address"
        }
      ],
      "name": "isApprovedForAll",
      "outputs": [
        {
          "internalType": "bool",
          "name": "",
          "type": "bool"
        }
      ],
      "stateMutability": "view",
      "type": "function"
    },
    {
      "inputs": [],
      "name": "isOwner",
      "outputs": [
        {
          "internalType": "bool",
          "name": "",
          "type": "bool"
        }
      ],
      "stateMutability": "view",
      "type": "function"
    },
    {
      "inputs": [],
      "name": "name",
      "outputs": [
        {
          "internalType": "string",
          "name": "",
          "type": "string"
        }
      ],
      "stateMutability": "view",
      "type": "function"
    },
    {
      "inputs": [
        {
          "internalType": "uint256",
          "name": "",
          "type": "uint256"
        }
      ],
      "name": "names",
      "outputs": [
        {
          "internalType": "string",
          "name": "",
          "type": "string"
        }
      ],
      "stateMutability": "view",
      "type": "function"
    },
    {
      "inputs": [],
      "name": "owner",
      "outputs": [
        {
          "internalType": "address payable",
          "name": "",
          "type": "address"
        }
      ],
      "stateMutability": "view",
      "type": "function"
    },
    {
      "inputs": [
        {
          "internalType": "uint256",
          "name": "tokenId",
          "type": "uint256"
        }
      ],
      "name": "ownerOf",
      "outputs": [
        {
          "internalType": "address",
          "name": "",
          "type": "address"
        }
      ],
      "stateMutability": "view",
      "type": "function"
    },
    {
      "inputs": [
        {
          "internalType": "string",
          "name": "name",
          "type": "string"
        }
      ],
      "name": "price",
      "outputs": [
        {
          "internalType": "uint256",
          "name": "",
          "type": "uint256"
        }
      ],
      "stateMutability": "pure",
      "type": "function"
    },
    {
      "inputs": [
        {
          "internalType": "string",
          "name": "",
          "type": "string"
        }
      ],
      "name": "records",
      "outputs": [
        {
          "internalType": "string",
          "name": "",
          "type": "string"
        }
      ],
      "stateMutability": "view",
      "type": "function"
    },
    {
      "inputs": [
        {
          "internalType": "string",
          "name": "name",
          "type": "string"
        }
      ],
      "name": "register",
      "outputs": [],
      "stateMutability": "payable",
      "type": "function"
    },
    {
      "inputs": [
        {
          "internalType": "address",
          "name": "from",
          "type": "address"
        },
        {
          "internalType": "address",
          "name": "to",
          "type": "address"
        },
        {
          "internalType": "uint256",
          "name": "tokenId",
          "type": "uint256"
        }
      ],
      "name": "safeTransferFrom",
      "outputs": [],
      "stateMutability": "nonpayable",
      "type": "function"
    },
    {
      "inputs": [
        {
          "internalType": "address",
          "name": "from",
          "type": "address"
        },
        {
          "internalType": "address",
          "name": "to",
          "type": "address"
        },
        {
          "internalType": "uint256",
          "name": "tokenId",
          "type": "uint256"
        },
        {
          "internalType": "bytes",
          "name": "_data",
          "type": "bytes"
        }
      ],
      "name": "safeTransferFrom",
      "outputs": [],
      "stateMutability": "nonpayable",
      "type": "function"
    },
    {
      "inputs": [
        {
          "internalType": "address",
          "name": "operator",
          "type": "address"
        },
        {
          "internalType": "bool",
          "name": "approved",
          "type": "bool"
        }
      ],
      "name": "setApprovalForAll",
      "outputs": [],
      "stateMutability": "nonpayable",
      "type": "function"
    },
    {
      "inputs": [
        {
          "internalType": "string",
          "name": "name",
          "type": "string"
        },
        {
          "internalType": "string",
          "name": "providerName",
          "type": "string"
        }
      ],
      "name": "setCloudProvider",
      "outputs": [],
      "stateMutability": "nonpayable",
      "type": "function"
    },
    {
      "inputs": [
        {
          "internalType": "string",
          "name": "name",
          "type": "string"
        },
        {
          "internalType": "string",
          "name": "record",
          "type": "string"
        }
      ],
      "name": "setRecord",
      "outputs": [],
      "stateMutability": "nonpayable",
      "type": "function"
    },
    {
      "inputs": [
        {
          "internalType": "bytes4",
          "name": "interfaceId",
          "type": "bytes4"
        }
      ],
      "name": "supportsInterface",
      "outputs": [
        {
          "internalType": "bool",
          "name": "",
          "type": "bool"
        }
      ],
      "stateMutability": "view",
      "type": "function"
    },
    {
      "inputs": [],
      "name": "symbol",
      "outputs": [
        {
          "internalType": "string",
          "name": "",
          "type": "string"
        }
      ],
      "stateMutability": "view",
      "type": "function"
    },
    {
      "inputs": [],
      "name": "tld",
      "outputs": [
        {
          "internalType": "string",
          "name": "",
          "type": "string"
        }
      ],
      "stateMutability": "view",
      "type": "function"
    },
    {
      "inputs": [
        {
          "internalType": "uint256",
          "name": "tokenId",
          "type": "uint256"
        }
      ],
      "name": "tokenURI",
      "outputs": [
        {
          "internalType": "string",
          "name": "",
          "type": "string"
        }
      ],
      "stateMutability": "view",
      "type": "function"
    },
    {
      "inputs": [
        {
          "internalType": "address",
          "name": "from",
          "type": "address"
        },
        {
          "internalType": "address",
          "name": "to",
          "type": "address"
        },
        {
          "internalType": "uint256",
          "name": "tokenId",
          "type": "uint256"
        }
      ],
      "name": "transferFrom",
      "outputs": [],
      "stateMutability": "nonpayable",
      "type": "function"
    },
    {
      "inputs": [
        {
          "internalType": "string",
          "name": "name",
          "type": "string"
        }
      ],
      "name": "valid",
      "outputs": [
        {
          "internalType": "bool",
          "name": "",
          "type": "bool"
        }
      ],
      "stateMutability": "pure",
      "type": "function"
    },
    {
      "inputs": [],
      "name": "withdraw",
      "outputs": [],
      "stateMutability": "nonpayable",
      "type": "function"
    }
  ],
  "bytecode": "0x6080604052604051806108a0016040528061086481526020016200579661086491396008908051906020019062000038929190620002c8565b506040518060400160405280600d81526020017f3c2f746578743e3c2f7376673e000000000000000000000000000000000000008152506009908051906020019062000086929190620002c8565b5060405162005ffa38038062005ffa8339818101604052810190620000ac919062000515565b6040518060400160405280601081526020017f416374204e616d652053657276696365000000000000000000000000000000008152506040518060400160405280600381526020017f414e530000000000000000000000000000000000000000000000000000000000815250816000908051906020019062000130929190620002c8565b50806001908051906020019062000149929190620002c8565b50505033600f60006101000a81548173ffffffffffffffffffffffffffffffffffffffff021916908373ffffffffffffffffffffffffffffffffffffffff16021790555080600a9080519060200190620001a5929190620002c8565b50620001f26040518060400160405280601b81526020017f27257327206e616d652073657276696365206465706c6f79656421000000000081525082620001f960201b62001edc1760201c565b5062000663565b6200029b828260405160240162000212929190620005c3565b6040516020818303038152906040527f4b5c4277000000000000000000000000000000000000000000000000000000007bffffffffffffffffffffffffffffffffffffffffffffffffffffffff19166020820180517bffffffffffffffffffffffffffffffffffffffffffffffffffffffff83818316178352505050506200029f60201b60201c565b5050565b60008151905060006a636f6e736f6c652e6c6f679050602083016000808483855afa5050505050565b828054620002d6906200062d565b90600052602060002090601f016020900481019282620002fa576000855562000346565b82601f106200031557805160ff191683800117855562000346565b8280016001018555821562000346579182015b828111156200034557825182559160200191906001019062000328565b5b50905062000355919062000359565b5090565b5b80821115620003745760008160009055506001016200035a565b5090565b6000604051905090565b600080fd5b600080fd5b600080fd5b600080fd5b6000601f19601f8301169050919050565b7f4e487b7100000000000000000000000000000000000000000000000000000000600052604160045260246000fd5b620003e18262000396565b810181811067ffffffffffffffff82111715620004035762000402620003a7565b5b80604052505050565b60006200041862000378565b9050620004268282620003d6565b919050565b600067ffffffffffffffff821115620004495762000448620003a7565b5b620004548262000396565b9050602081019050919050565b60005b838110156200048157808201518184015260208101905062000464565b8381111562000491576000848401525b50505050565b6000620004ae620004a8846200042b565b6200040c565b905082815260208101848484011115620004cd57620004cc62000391565b5b620004da84828562000461565b509392505050565b600082601f830112620004fa57620004f96200038c565b5b81516200050c84826020860162000497565b91505092915050565b6000602082840312156200052e576200052d62000382565b5b600082015167ffffffffffffffff8111156200054f576200054e62000387565b5b6200055d84828501620004e2565b91505092915050565b600081519050919050565b600082825260208201905092915050565b60006200058f8262000566565b6200059b818562000571565b9350620005ad81856020860162000461565b620005b88162000396565b840191505092915050565b60006040820190508181036000830152620005df818562000582565b90508181036020830152620005f5818462000582565b90509392505050565b7f4e487b7100000000000000000000000000000000000000000000000000000000600052602260045260246000fd5b600060028204905060018216806200064657607f821691505b602082108114156200065d576200065c620005fe565b5b50919050565b61512380620006736000396000f3fe6080604052600436106101cd5760003560e01c806370a08231116100f7578063bf40fac111610095578063ea7df73e11610064578063ea7df73e1461070c578063f2c298be14610735578063fb825e5f14610751578063fe2c61981461077c576101cd565b8063bf40fac11461062c578063c1880a9814610669578063c87b56dd14610692578063e985e9c5146106cf576101cd565b806395d89b41116100d157806395d89b41146105725780639791c0971461059d578063a22cb465146105da578063b88d4fde14610603576101cd565b806370a08231146104df5780638da5cb5b1461051c5780638f32d59b14610547576101cd565b8063264492351161016f57806342842e0e1161013e57806342842e0e146103ff5780634622ab0314610428578063541e771d146104655780636352211e146104a2576101cd565b806326449235146103435780632d5514321461038057806336dd8eed146103ab5780633ccfd60b146103e8576101cd565b8063095ea7b3116101ab578063095ea7b31461027757806311dd8845146102a057806323b872dd146102dd5780632629742b14610306576101cd565b806301ffc9a7146101d257806306fdde031461020f578063081812fc1461023a575b600080fd5b3480156101de57600080fd5b506101f960048036038101906101f4919061345d565b6107b9565b60405161020691906134a5565b60405180910390f35b34801561021b57600080fd5b5061022461089b565b6040516102319190613559565b60405180910390f35b34801561024657600080fd5b50610261600480360381019061025c91906135b1565b61092d565b60405161026e919061361f565b60405180910390f35b34801561028357600080fd5b5061029e60048036038101906102999190613666565b6109b2565b005b3480156102ac57600080fd5b506102c760048036038101906102c2919061370b565b610aca565b6040516102d49190613559565b60405180910390f35b3480156102e957600080fd5b5061030460048036038101906102ff9190613758565b610b7d565b005b34801561031257600080fd5b5061032d6004803603810190610328919061370b565b610bdd565b60405161033a9190613559565b60405180910390f35b34801561034f57600080fd5b5061036a600480360381019061036591906138db565b610c90565b604051610377919061361f565b60405180910390f35b34801561038c57600080fd5b50610395610cd9565b6040516103a29190613559565b60405180910390f35b3480156103b757600080fd5b506103d260048036038101906103cd91906138db565b610d67565b6040516103df9190613559565b60405180910390f35b3480156103f457600080fd5b506103fd610e1d565b005b34801561040b57600080fd5b5061042660048036038101906104219190613758565b610ee3565b005b34801561043457600080fd5b5061044f600480360381019061044a91906135b1565b610f03565b60405161045c9190613559565b60405180910390f35b34801561047157600080fd5b5061048c600480360381019061048791906138db565b610fa3565b6040516104999190613559565b60405180910390f35b3480156104ae57600080fd5b506104c960048036038101906104c491906135b1565b611059565b6040516104d6919061361f565b60405180910390f35b3480156104eb57600080fd5b5061050660048036038101906105019190613924565b61110b565b6040516105139190613960565b60405180910390f35b34801561052857600080fd5b506105316111c3565b60405161053e919061399c565b60405180910390f35b34801561055357600080fd5b5061055c6111e9565b60405161056991906134a5565b60405180910390f35b34801561057e57600080fd5b50610587611241565b6040516105949190613559565b60405180910390f35b3480156105a957600080fd5b506105c460048036038101906105bf919061370b565b6112d3565b6040516105d191906134a5565b60405180910390f35b3480156105e657600080fd5b5061060160048036038101906105fc91906139e3565b611387565b005b34801561060f57600080fd5b5061062a60048036038101906106259190613ac4565b61139d565b005b34801561063857600080fd5b50610653600480360381019061064e919061370b565b6113ff565b604051610660919061361f565b60405180910390f35b34801561067557600080fd5b50610690600480360381019061068b9190613b47565b61144a565b005b34801561069e57600080fd5b506106b960048036038101906106b491906135b1565b611525565b6040516106c69190613559565b60405180910390f35b3480156106db57600080fd5b506106f660048036038101906106f19190613bc8565b611677565b60405161070391906134a5565b60405180910390f35b34801561071857600080fd5b50610733600480360381019061072e9190613b47565b61170b565b005b61074f600480360381019061074a919061370b565b6117b9565b005b34801561075d57600080fd5b50610766611c76565b6040516107739190613d14565b60405180910390f35b34801561078857600080fd5b506107a3600480360381019061079e919061370b565b611e37565b6040516107b09190613960565b60405180910390f35b60007f80ac58cd000000000000000000000000000000000000000000000000000000007bffffffffffffffffffffffffffffffffffffffffffffffffffffffff1916827bffffffffffffffffffffffffffffffffffffffffffffffffffffffff1916148061088457507f5b5e139f000000000000000000000000000000000000000000000000000000007bffffffffffffffffffffffffffffffffffffffffffffffffffffffff1916827bffffffffffffffffffffffffffffffffffffffffffffffffffffffff1916145b80610894575061089382611f78565b5b9050919050565b6060600080546108aa90613d65565b80601f01602080910402602001604051908101604052809291908181526020018280546108d690613d65565b80156109235780601f106108f857610100808354040283529160200191610923565b820191906000526020600020905b81548152906001019060200180831161090657829003601f168201915b5050505050905090565b600061093882611fe2565b610977576040517f08c379a000000000000000000000000000000000000000000000000000000000815260040161096e90613e09565b60405180910390fd5b6004600083815260200190815260200160002060009054906101000a900473ffffffffffffffffffffffffffffffffffffffff169050919050565b60006109bd82611059565b90508073ffffffffffffffffffffffffffffffffffffffff168373ffffffffffffffffffffffffffffffffffffffff161415610a2e576040517f08c379a0000000000000000000000000000000000000000000000000000000008152600401610a2590613e9b565b60405180910390fd5b8073ffffffffffffffffffffffffffffffffffffffff16610a4d61204e565b73ffffffffffffffffffffffffffffffffffffffff161480610a7c5750610a7b81610a7661204e565b611677565b5b610abb576040517f08c379a0000000000000000000000000000000000000000000000000000000008152600401610ab290613f2d565b60405180910390fd5b610ac58383612056565b505050565b6060600c8383604051610ade929190613f7d565b90815260200160405180910390208054610af790613d65565b80601f0160208091040260200160405190810160405280929190818152602001828054610b2390613d65565b8015610b705780601f10610b4557610100808354040283529160200191610b70565b820191906000526020600020905b815481529060010190602001808311610b5357829003601f168201915b5050505050905092915050565b610b8e610b8861204e565b8261210f565b610bcd576040517f08c379a0000000000000000000000000000000000000000000000000000000008152600401610bc490614008565b60405180910390fd5b610bd88383836121ed565b505050565b6060600d8383604051610bf1929190613f7d565b90815260200160405180910390208054610c0a90613d65565b80601f0160208091040260200160405190810160405280929190818152602001828054610c3690613d65565b8015610c835780601f10610c5857610100808354040283529160200191610c83565b820191906000526020600020905b815481529060010190602001808311610c6657829003601f168201915b5050505050905092915050565b600b818051602081018201805184825260208301602085012081835280955050505050506000915054906101000a900473ffffffffffffffffffffffffffffffffffffffff1681565b600a8054610ce690613d65565b80601f0160208091040260200160405190810160405280929190818152602001828054610d1290613d65565b8015610d5f5780601f10610d3457610100808354040283529160200191610d5f565b820191906000526020600020905b815481529060010190602001808311610d4257829003601f168201915b505050505081565b600d818051602081018201805184825260208301602085012081835280955050505050506000915090508054610d9c90613d65565b80601f0160208091040260200160405190810160405280929190818152602001828054610dc890613d65565b8015610e155780601f10610dea57610100808354040283529160200191610e15565b820191906000526020600020905b815481529060010190602001808311610df857829003601f168201915b505050505081565b610e256111e9565b610e2e57600080fd5b600047905060003373ffffffffffffffffffffffffffffffffffffffff1682604051610e5990614059565b60006040518083038185875af1925050503d8060008114610e96576040519150601f19603f3d011682016040523d82523d6000602084013e610e9b565b606091505b5050905080610edf576040517f08c379a0000000000000000000000000000000000000000000000000000000008152600401610ed6906140ba565b60405180910390fd5b5050565b610efe8383836040518060200160405280600081525061139d565b505050565b600e6020528060005260406000206000915090508054610f2290613d65565b80601f0160208091040260200160405190810160405280929190818152602001828054610f4e90613d65565b8015610f9b5780601f10610f7057610100808354040283529160200191610f9b565b820191906000526020600020905b815481529060010190602001808311610f7e57829003601f168201915b505050505081565b600c818051602081018201805184825260208301602085012081835280955050505050506000915090508054610fd890613d65565b80601f016020809104026020016040519081016040528092919081815260200182805461100490613d65565b80156110515780601f1061102657610100808354040283529160200191611051565b820191906000526020600020905b81548152906001019060200180831161103457829003601f168201915b505050505081565b6000806002600084815260200190815260200160002060009054906101000a900473ffffffffffffffffffffffffffffffffffffffff169050600073ffffffffffffffffffffffffffffffffffffffff168173ffffffffffffffffffffffffffffffffffffffff161415611102576040517f08c379a00000000000000000000000000000000000000000000000000000000081526004016110f99061414c565b60405180910390fd5b80915050919050565b60008073ffffffffffffffffffffffffffffffffffffffff168273ffffffffffffffffffffffffffffffffffffffff16141561117c576040517f08c379a0000000000000000000000000000000000000000000000000000000008152600401611173906141de565b60405180910390fd5b600360008373ffffffffffffffffffffffffffffffffffffffff1673ffffffffffffffffffffffffffffffffffffffff168152602001908152602001600020549050919050565b600f60009054906101000a900473ffffffffffffffffffffffffffffffffffffffff1681565b6000600f60009054906101000a900473ffffffffffffffffffffffffffffffffffffffff1673ffffffffffffffffffffffffffffffffffffffff163373ffffffffffffffffffffffffffffffffffffffff1614905090565b60606001805461125090613d65565b80601f016020809104026020016040519081016040528092919081815260200182805461127c90613d65565b80156112c95780601f1061129e576101008083540402835291602001916112c9565b820191906000526020600020905b8154815290600101906020018083116112ac57829003601f168201915b5050505050905090565b6000600361132484848080601f016020809104026020016040519081016040528093929190818152602001838380828437600081840152601f19601f82011690508083019250505050505050612454565b1015801561137f5750600a61137c84848080601f016020809104026020016040519081016040528093929190818152602001838380828437600081840152601f19601f82011690508083019250505050505050612454565b11155b905092915050565b61139961139261204e565b8383612609565b5050565b6113ae6113a861204e565b8361210f565b6113ed576040517f08c379a00000000000000000000000000000000000000000000000000000000081526004016113e490614008565b60405180910390fd5b6113f984848484612776565b50505050565b6000600b8383604051611413929190613f7d565b908152602001604051809103902060009054906101000a900473ffffffffffffffffffffffffffffffffffffffff16905092915050565b600b848460405161145c929190613f7d565b908152602001604051809103902060009054906101000a900473ffffffffffffffffffffffffffffffffffffffff1673ffffffffffffffffffffffffffffffffffffffff163373ffffffffffffffffffffffffffffffffffffffff16146114ef576040517f82b4290000000000000000000000000000000000000000000000000000000000815260040160405180910390fd5b8181600c8686604051611503929190613f7d565b9081526020016040518091039020919061151e9291906132c8565b5050505050565b606061153082611fe2565b61156f576040517f08c379a000000000000000000000000000000000000000000000000000000000815260040161156690614270565b60405180910390fd5b600060066000848152602001908152602001600020805461158f90613d65565b80601f01602080910402602001604051908101604052809291908181526020018280546115bb90613d65565b80156116085780601f106115dd57610100808354040283529160200191611608565b820191906000526020600020905b8154815290600101906020018083116115eb57829003601f168201915b5050505050905060006116196127d2565b905060008151141561162f578192505050611672565b60008251111561166457808260405160200161164c9291906142c1565b60405160208183030381529060405292505050611672565b61166d846127e9565b925050505b919050565b6000600560008473ffffffffffffffffffffffffffffffffffffffff1673ffffffffffffffffffffffffffffffffffffffff16815260200190815260200160002060008373ffffffffffffffffffffffffffffffffffffffff1673ffffffffffffffffffffffffffffffffffffffff16815260200190815260200160002060009054906101000a900460ff16905092915050565b3373ffffffffffffffffffffffffffffffffffffffff16600b8585604051611734929190613f7d565b908152602001604051809103902060009054906101000a900473ffffffffffffffffffffffffffffffffffffffff1673ffffffffffffffffffffffffffffffffffffffff161461178357600080fd5b8181600d8686604051611797929190613f7d565b908152602001604051809103902091906117b29291906132c8565b5050505050565b600073ffffffffffffffffffffffffffffffffffffffff16600b83836040516117e3929190613f7d565b908152602001604051809103902060009054906101000a900473ffffffffffffffffffffffffffffffffffffffff1673ffffffffffffffffffffffffffffffffffffffff161461185f576040517f3a81d6fc00000000000000000000000000000000000000000000000000000000815260040160405180910390fd5b61186982826112d3565b6118ac5781816040517f7f19f48d0000000000000000000000000000000000000000000000000000000081526004016118a3929190614312565b60405180910390fd5b60006118b88383611e37565b9050803410156118fd576040517f08c379a00000000000000000000000000000000000000000000000000000000081526004016118f490614382565b60405180910390fd5b60008383600a60405160200161191593929190614482565b60405160208183030381529060405290506000600882600960405160200161193f939291906144b3565b6040516020818303038152906040529050600061195c6007612890565b905060006119ad87878080601f016020809104026020016040519081016040528093929190818152602001838380828437600081840152601f19601f82011690508083019250505050505050612454565b905060006119ba8261289e565b9050611aae60405180606001604052806031815260200161501a6031913989898080601f016020809104026020016040519081016040528093929190818152602001838380828437600081840152601f19601f82011690508083019250505050505050600a8054611a2a90613d65565b80601f0160208091040260200160405190810160405280929190818152602001828054611a5690613d65565b8015611aa35780601f10611a7857610100808354040283529160200191611aa3565b820191906000526020600020905b815481529060010190602001808311611a8657829003601f168201915b5050505050866129ff565b6000611ae486611abd87612aa1565b84604051602001611ad093929190614660565b604051602081830303815290604052612aa1565b9050600081604051602001611af99190614709565b6040516020818303038152906040529050611b2b604051806060016040528060398152602001614fe160399139612c39565b611b6a6040518060400160405280600e81526020017f46696e616c20746f6b656e55524900000000000000000000000000000000000081525082611edc565b611b8b60405180606001604052806039815260200161504b60399139612c39565b611b953386612cd2565b611b9f8582612cf0565b33600b8b8b604051611bb2929190613f7d565b908152602001604051809103902060006101000a81548173ffffffffffffffffffffffffffffffffffffffff021916908373ffffffffffffffffffffffffffffffffffffffff160217905550611c3d6040518060400160405280601b81526020017f2573206861732072656769737465726564206120646f6d61696e21000000000081525033612d64565b8989600e60008881526020019081526020016000209190611c5f9291906132c8565b50611c6a6007612e00565b50505050505050505050565b6060611c996040518060600160405280602a81526020016150c4602a9139612c39565b6000611ca56007612890565b67ffffffffffffffff811115611cbe57611cbd6137b0565b5b604051908082528060200260200182016040528015611cf157816020015b6060815260200190600190039081611cdc5790505b50905060005b611d016007612890565b811015611e2f57600e60008281526020019081526020016000208054611d2690613d65565b80601f0160208091040260200160405190810160405280929190818152602001828054611d5290613d65565b8015611d9f5780601f10611d7457610100808354040283529160200191611d9f565b820191906000526020600020905b815481529060010190602001808311611d8257829003601f168201915b5050505050828281518110611db757611db661472b565b5b6020026020010181905250611e1c6040518060400160405280601681526020017f4e616d65206f6620746f6b656e2025642069732025730000000000000000000081525082848481518110611e0f57611e0e61472b565b5b6020026020010151612e16565b8080611e2790614789565b915050611cf7565b508091505090565b600080611e8784848080601f016020809104026020016040519081016040528093929190818152602001838380828437600081840152601f19601f82011690508083019250505050505050612454565b905060008111611e9657600080fd5b60038111611eaf576706f05b59d3b20000915050611ed6565b6004811415611ec957670429d069189e0000915050611ed6565b67016345785d8a00009150505b92915050565b611f748282604051602401611ef29291906147d2565b6040516020818303038152906040527f4b5c4277000000000000000000000000000000000000000000000000000000007bffffffffffffffffffffffffffffffffffffffffffffffffffffffff19166020820180517bffffffffffffffffffffffffffffffffffffffffffffffffffffffff8381831617835250505050612eb5565b5050565b60007f01ffc9a7000000000000000000000000000000000000000000000000000000007bffffffffffffffffffffffffffffffffffffffffffffffffffffffff1916827bffffffffffffffffffffffffffffffffffffffffffffffffffffffff1916149050919050565b60008073ffffffffffffffffffffffffffffffffffffffff166002600084815260200190815260200160002060009054906101000a900473ffffffffffffffffffffffffffffffffffffffff1673ffffffffffffffffffffffffffffffffffffffff1614159050919050565b600033905090565b816004600083815260200190815260200160002060006101000a81548173ffffffffffffffffffffffffffffffffffffffff021916908373ffffffffffffffffffffffffffffffffffffffff160217905550808273ffffffffffffffffffffffffffffffffffffffff166120c983611059565b73ffffffffffffffffffffffffffffffffffffffff167f8c5be1e5ebec7d5bd14f71427d1e84f3dd0314c0f7b2291e5b200ac8c7c3b92560405160405180910390a45050565b600061211a82611fe2565b612159576040517f08c379a00000000000000000000000000000000000000000000000000000000081526004016121509061487b565b60405180910390fd5b600061216483611059565b90508073ffffffffffffffffffffffffffffffffffffffff168473ffffffffffffffffffffffffffffffffffffffff1614806121d357508373ffffffffffffffffffffffffffffffffffffffff166121bb8461092d565b73ffffffffffffffffffffffffffffffffffffffff16145b806121e457506121e38185611677565b5b91505092915050565b8273ffffffffffffffffffffffffffffffffffffffff1661220d82611059565b73ffffffffffffffffffffffffffffffffffffffff1614612263576040517f08c379a000000000000000000000000000000000000000000000000000000000815260040161225a9061490d565b60405180910390fd5b600073ffffffffffffffffffffffffffffffffffffffff168273ffffffffffffffffffffffffffffffffffffffff1614156122d3576040517f08c379a00000000000000000000000000000000000000000000000000000000081526004016122ca9061499f565b60405180910390fd5b6122de838383612ede565b6122e9600082612056565b6001600360008573ffffffffffffffffffffffffffffffffffffffff1673ffffffffffffffffffffffffffffffffffffffff168152602001908152602001600020600082825461233991906149bf565b925050819055506001600360008473ffffffffffffffffffffffffffffffffffffffff1673ffffffffffffffffffffffffffffffffffffffff168152602001908152602001600020600082825461239091906149f3565b92505081905550816002600083815260200190815260200160002060006101000a81548173ffffffffffffffffffffffffffffffffffffffff021916908373ffffffffffffffffffffffffffffffffffffffff160217905550808273ffffffffffffffffffffffffffffffffffffffff168473ffffffffffffffffffffffffffffffffffffffff167fddf252ad1be2c89b69c2b068fc378daa952ba7f163c4a11628f55a4df523b3ef60405160405180910390a461244f838383612ee3565b505050565b60008060008084519050600092505b808210156125fe5760008583815181106124805761247f61472b565b5b602001015160f81c60f81b9050608060f81b817effffffffffffffffffffffffffffffffffffffffffffffffffffffffffffff191610156124cf576001836124c891906149f3565b92506125ea565b60e060f81b817effffffffffffffffffffffffffffffffffffffffffffffffffffffffffffff191610156125115760028361250a91906149f3565b92506125e9565b60f060f81b817effffffffffffffffffffffffffffffffffffffffffffffffffffffffffffff191610156125535760038361254c91906149f3565b92506125e8565b60f8801b817effffffffffffffffffffffffffffffffffffffffffffffffffffffffffffff191610156125945760048361258d91906149f3565b92506125e7565b60fc60f81b817effffffffffffffffffffffffffffffffffffffffffffffffffffffffffffff191610156125d6576005836125cf91906149f3565b92506125e6565b6006836125e391906149f3565b92505b5b5b5b5b5082806125f690614789565b935050612463565b829350505050919050565b8173ffffffffffffffffffffffffffffffffffffffff168373ffffffffffffffffffffffffffffffffffffffff161415612678576040517f08c379a000000000000000000000000000000000000000000000000000000000815260040161266f90614a95565b60405180910390fd5b80600560008573ffffffffffffffffffffffffffffffffffffffff1673ffffffffffffffffffffffffffffffffffffffff16815260200190815260200160002060008473ffffffffffffffffffffffffffffffffffffffff1673ffffffffffffffffffffffffffffffffffffffff16815260200190815260200160002060006101000a81548160ff0219169083151502179055508173ffffffffffffffffffffffffffffffffffffffff168373ffffffffffffffffffffffffffffffffffffffff167f17307eab39ab6107e8899845ad3d59bd9653f200f220920489ca2b5937696c318360405161276991906134a5565b60405180910390a3505050565b6127818484846121ed565b61278d84848484612ee8565b6127cc576040517f08c379a00000000000000000000000000000000000000000000000000000000081526004016127c390614b27565b60405180910390fd5b50505050565b606060405180602001604052806000815250905090565b60606127f482611fe2565b612833576040517f08c379a000000000000000000000000000000000000000000000000000000000815260040161282a90614bb9565b60405180910390fd5b600061283d6127d2565b9050600081511161285d5760405180602001604052806000815250612888565b806128678461289e565b6040516020016128789291906142c1565b6040516020818303038152906040525b915050919050565b600081600001549050919050565b606060008214156128e6576040518060400160405280600181526020017f300000000000000000000000000000000000000000000000000000000000000081525090506129fa565b600082905060005b6000821461291857808061290190614789565b915050600a826129119190614c08565b91506128ee565b60008167ffffffffffffffff811115612934576129336137b0565b5b6040519080825280601f01601f1916602001820160405280156129665781602001600182028036833780820191505090505b5090505b600085146129f35760018261297f91906149bf565b9150600a8561298e9190614c39565b603061299a91906149f3565b60f81b8183815181106129b0576129af61472b565b5b60200101907effffffffffffffffffffffffffffffffffffffffffffffffffffffffffffff1916908160001a905350600a856129ec9190614c08565b945061296a565b8093505050505b919050565b612a9b84848484604051602401612a199493929190614c6a565b6040516020818303038152906040527f9fd009f5000000000000000000000000000000000000000000000000000000007bffffffffffffffffffffffffffffffffffffffffffffffffffffffff19166020820180517bffffffffffffffffffffffffffffffffffffffffffffffffffffffff8381831617835250505050612eb5565b50505050565b60606000825190506000811415612aca5760405180602001604052806000815250915050612c34565b60006003600283612adb91906149f3565b612ae59190614c08565b6004612af19190614cc4565b90506000602082612b0291906149f3565b67ffffffffffffffff811115612b1b57612b1a6137b0565b5b6040519080825280601f01601f191660200182016040528015612b4d5781602001600182028036833780820191505090505b5090506000604051806060016040528060408152602001615084604091399050600181016020830160005b86811015612bf15760038101905062ffffff818a015116603f8160121c168401518060081b905060ff603f83600c1c1686015116810190508060081b905060ff603f8360061c1686015116810190508060081b905060ff603f831686015116810190508060e01b90508084526004840193505050612b78565b506003860660018114612c0b5760028114612c1b57612c26565b613d3d60f01b6002830352612c26565b603d60f81b60018303525b508484525050819450505050505b919050565b612ccf81604051602401612c4d9190613559565b6040516020818303038152906040527f41304fac000000000000000000000000000000000000000000000000000000007bffffffffffffffffffffffffffffffffffffffffffffffffffffffff19166020820180517bffffffffffffffffffffffffffffffffffffffffffffffffffffffff8381831617835250505050612eb5565b50565b612cec828260405180602001604052806000815250613070565b5050565b612cf982611fe2565b612d38576040517f08c379a0000000000000000000000000000000000000000000000000000000008152600401612d2f90614d90565b60405180910390fd5b80600660008481526020019081526020016000209080519060200190612d5f92919061334e565b505050565b612dfc8282604051602401612d7a929190614db0565b6040516020818303038152906040527f319af333000000000000000000000000000000000000000000000000000000007bffffffffffffffffffffffffffffffffffffffffffffffffffffffff19166020820180517bffffffffffffffffffffffffffffffffffffffffffffffffffffffff8381831617835250505050612eb5565b5050565b6001816000016000828254019250508190555050565b612eb0838383604051602401612e2e93929190614de0565b6040516020818303038152906040527fa3f5c739000000000000000000000000000000000000000000000000000000007bffffffffffffffffffffffffffffffffffffffffffffffffffffffff19166020820180517bffffffffffffffffffffffffffffffffffffffffffffffffffffffff8381831617835250505050612eb5565b505050565b60008151905060006a636f6e736f6c652e6c6f679050602083016000808483855afa5050505050565b505050565b505050565b6000612f098473ffffffffffffffffffffffffffffffffffffffff166130cb565b15613063578373ffffffffffffffffffffffffffffffffffffffff1663150b7a02612f3261204e565b8786866040518563ffffffff1660e01b8152600401612f549493929190614e7a565b6020604051808303816000875af1925050508015612f9057506040513d601f19601f82011682018060405250810190612f8d9190614edb565b60015b613013573d8060008114612fc0576040519150601f19603f3d011682016040523d82523d6000602084013e612fc5565b606091505b5060008151141561300b576040517f08c379a000000000000000000000000000000000000000000000000000000000815260040161300290614b27565b60405180910390fd5b805181602001fd5b63150b7a0260e01b7bffffffffffffffffffffffffffffffffffffffffffffffffffffffff1916817bffffffffffffffffffffffffffffffffffffffffffffffffffffffff191614915050613068565b600190505b949350505050565b61307a83836130ee565b6130876000848484612ee8565b6130c6576040517f08c379a00000000000000000000000000000000000000000000000000000000081526004016130bd90614b27565b60405180910390fd5b505050565b6000808273ffffffffffffffffffffffffffffffffffffffff163b119050919050565b600073ffffffffffffffffffffffffffffffffffffffff168273ffffffffffffffffffffffffffffffffffffffff16141561315e576040517f08c379a000000000000000000000000000000000000000000000000000000000815260040161315590614f54565b60405180910390fd5b61316781611fe2565b156131a7576040517f08c379a000000000000000000000000000000000000000000000000000000000815260040161319e90614fc0565b60405180910390fd5b6131b360008383612ede565b6001600360008473ffffffffffffffffffffffffffffffffffffffff1673ffffffffffffffffffffffffffffffffffffffff168152602001908152602001600020600082825461320391906149f3565b92505081905550816002600083815260200190815260200160002060006101000a81548173ffffffffffffffffffffffffffffffffffffffff021916908373ffffffffffffffffffffffffffffffffffffffff160217905550808273ffffffffffffffffffffffffffffffffffffffff16600073ffffffffffffffffffffffffffffffffffffffff167fddf252ad1be2c89b69c2b068fc378daa952ba7f163c4a11628f55a4df523b3ef60405160405180910390a46132c460008383612ee3565b5050565b8280546132d490613d65565b90600052602060002090601f0160209004810192826132f6576000855561333d565b82601f1061330f57803560ff191683800117855561333d565b8280016001018555821561333d579182015b8281111561333c578235825591602001919060010190613321565b5b50905061334a91906133d4565b5090565b82805461335a90613d65565b90600052602060002090601f01602090048101928261337c57600085556133c3565b82601f1061339557805160ff19168380011785556133c3565b828001600101855582156133c3579182015b828111156133c25782518255916020019190600101906133a7565b5b5090506133d091906133d4565b5090565b5b808211156133ed5760008160009055506001016133d5565b5090565b6000604051905090565b600080fd5b600080fd5b60007fffffffff0000000000000000000000000000000000000000000000000000000082169050919050565b61343a81613405565b811461344557600080fd5b50565b60008135905061345781613431565b92915050565b600060208284031215613473576134726133fb565b5b600061348184828501613448565b91505092915050565b60008115159050919050565b61349f8161348a565b82525050565b60006020820190506134ba6000830184613496565b92915050565b600081519050919050565b600082825260208201905092915050565b60005b838110156134fa5780820151818401526020810190506134df565b83811115613509576000848401525b50505050565b6000601f19601f8301169050919050565b600061352b826134c0565b61353581856134cb565b93506135458185602086016134dc565b61354e8161350f565b840191505092915050565b600060208201905081810360008301526135738184613520565b905092915050565b6000819050919050565b61358e8161357b565b811461359957600080fd5b50565b6000813590506135ab81613585565b92915050565b6000602082840312156135c7576135c66133fb565b5b60006135d58482850161359c565b91505092915050565b600073ffffffffffffffffffffffffffffffffffffffff82169050919050565b6000613609826135de565b9050919050565b613619816135fe565b82525050565b60006020820190506136346000830184613610565b92915050565b613643816135fe565b811461364e57600080fd5b50565b6000813590506136608161363a565b92915050565b6000806040838503121561367d5761367c6133fb565b5b600061368b85828601613651565b925050602061369c8582860161359c565b9150509250929050565b600080fd5b600080fd5b600080fd5b60008083601f8401126136cb576136ca6136a6565b5b8235905067ffffffffffffffff8111156136e8576136e76136ab565b5b602083019150836001820283011115613704576137036136b0565b5b9250929050565b60008060208385031215613722576137216133fb565b5b600083013567ffffffffffffffff8111156137405761373f613400565b5b61374c858286016136b5565b92509250509250929050565b600080600060608486031215613771576137706133fb565b5b600061377f86828701613651565b935050602061379086828701613651565b92505060406137a18682870161359c565b9150509250925092565b600080fd5b7f4e487b7100000000000000000000000000000000000000000000000000000000600052604160045260246000fd5b6137e88261350f565b810181811067ffffffffffffffff82111715613807576138066137b0565b5b80604052505050565b600061381a6133f1565b905061382682826137df565b919050565b600067ffffffffffffffff821115613846576138456137b0565b5b61384f8261350f565b9050602081019050919050565b82818337600083830152505050565b600061387e6138798461382b565b613810565b90508281526020810184848401111561389a576138996137ab565b5b6138a584828561385c565b509392505050565b600082601f8301126138c2576138c16136a6565b5b81356138d284826020860161386b565b91505092915050565b6000602082840312156138f1576138f06133fb565b5b600082013567ffffffffffffffff81111561390f5761390e613400565b5b61391b848285016138ad565b91505092915050565b60006020828403121561393a576139396133fb565b5b600061394884828501613651565b91505092915050565b61395a8161357b565b82525050565b60006020820190506139756000830184613951565b92915050565b6000613986826135de565b9050919050565b6139968161397b565b82525050565b60006020820190506139b1600083018461398d565b92915050565b6139c08161348a565b81146139cb57600080fd5b50565b6000813590506139dd816139b7565b92915050565b600080604083850312156139fa576139f96133fb565b5b6000613a0885828601613651565b9250506020613a19858286016139ce565b9150509250929050565b600067ffffffffffffffff821115613a3e57613a3d6137b0565b5b613a478261350f565b9050602081019050919050565b6000613a67613a6284613a23565b613810565b905082815260208101848484011115613a8357613a826137ab565b5b613a8e84828561385c565b509392505050565b600082601f830112613aab57613aaa6136a6565b5b8135613abb848260208601613a54565b91505092915050565b60008060008060808587031215613ade57613add6133fb565b5b6000613aec87828801613651565b9450506020613afd87828801613651565b9350506040613b0e8782880161359c565b925050606085013567ffffffffffffffff811115613b2f57613b2e613400565b5b613b3b87828801613a96565b91505092959194509250565b60008060008060408587031215613b6157613b606133fb565b5b600085013567ffffffffffffffff811115613b7f57613b7e613400565b5b613b8b878288016136b5565b9450945050602085013567ffffffffffffffff811115613bae57613bad613400565b5b613bba878288016136b5565b925092505092959194509250565b60008060408385031215613bdf57613bde6133fb565b5b6000613bed85828601613651565b9250506020613bfe85828601613651565b9150509250929050565b600081519050919050565b600082825260208201905092915050565b6000819050602082019050919050565b600082825260208201905092915050565b6000613c50826134c0565b613c5a8185613c34565b9350613c6a8185602086016134dc565b613c738161350f565b840191505092915050565b6000613c8a8383613c45565b905092915050565b6000602082019050919050565b6000613caa82613c08565b613cb48185613c13565b935083602082028501613cc685613c24565b8060005b85811015613d025784840389528151613ce38582613c7e565b9450613cee83613c92565b925060208a01995050600181019050613cca565b50829750879550505050505092915050565b60006020820190508181036000830152613d2e8184613c9f565b905092915050565b7f4e487b7100000000000000000000000000000000000000000000000000000000600052602260045260246000fd5b60006002820490506001821680613d7d57607f821691505b60208210811415613d9157613d90613d36565b5b50919050565b7f4552433732313a20617070726f76656420717565727920666f72206e6f6e657860008201527f697374656e7420746f6b656e0000000000000000000000000000000000000000602082015250565b6000613df3602c836134cb565b9150613dfe82613d97565b604082019050919050565b60006020820190508181036000830152613e2281613de6565b9050919050565b7f4552433732313a20617070726f76616c20746f2063757272656e74206f776e6560008201527f7200000000000000000000000000000000000000000000000000000000000000602082015250565b6000613e856021836134cb565b9150613e9082613e29565b604082019050919050565b60006020820190508181036000830152613eb481613e78565b9050919050565b7f4552433732313a20617070726f76652063616c6c6572206973206e6f74206f7760008201527f6e6572206e6f7220617070726f76656420666f7220616c6c0000000000000000602082015250565b6000613f176038836134cb565b9150613f2282613ebb565b604082019050919050565b60006020820190508181036000830152613f4681613f0a565b9050919050565b600081905092915050565b6000613f648385613f4d565b9350613f7183858461385c565b82840190509392505050565b6000613f8a828486613f58565b91508190509392505050565b7f4552433732313a207472616e736665722063616c6c6572206973206e6f74206f60008201527f776e6572206e6f7220617070726f766564000000000000000000000000000000602082015250565b6000613ff26031836134cb565b9150613ffd82613f96565b604082019050919050565b6000602082019050818103600083015261402181613fe5565b9050919050565b600081905092915050565b50565b6000614043600083614028565b915061404e82614033565b600082019050919050565b600061406482614036565b9150819050919050565b7f4661696c656420746f207769746864726177204d617469630000000000000000600082015250565b60006140a46018836134cb565b91506140af8261406e565b602082019050919050565b600060208201905081810360008301526140d381614097565b9050919050565b7f4552433732313a206f776e657220717565727920666f72206e6f6e657869737460008201527f656e7420746f6b656e0000000000000000000000000000000000000000000000602082015250565b60006141366029836134cb565b9150614141826140da565b604082019050919050565b6000602082019050818103600083015261416581614129565b9050919050565b7f4552433732313a2062616c616e636520717565727920666f7220746865207a6560008201527f726f206164647265737300000000000000000000000000000000000000000000602082015250565b60006141c8602a836134cb565b91506141d38261416c565b604082019050919050565b600060208201905081810360008301526141f7816141bb565b9050919050565b7f45524337323155524953746f726167653a2055524920717565727920666f722060008201527f6e6f6e6578697374656e7420746f6b656e000000000000000000000000000000602082015250565b600061425a6031836134cb565b9150614265826141fe565b604082019050919050565b600060208201905081810360008301526142898161424d565b9050919050565b600061429b826134c0565b6142a58185613f4d565b93506142b58185602086016134dc565b80840191505092915050565b60006142cd8285614290565b91506142d98284614290565b91508190509392505050565b60006142f183856134cb565b93506142fe83858461385c565b6143078361350f565b840190509392505050565b6000602082019050818103600083015261432d8184866142e5565b90509392505050565b7f4e6f7420656e6f756768204d6174696320706169640000000000000000000000600082015250565b600061436c6015836134cb565b915061437782614336565b602082019050919050565b6000602082019050818103600083015261439b8161435f565b9050919050565b7f2e00000000000000000000000000000000000000000000000000000000000000600082015250565b60006143d8600183613f4d565b91506143e3826143a2565b600182019050919050565b60008190508160005260206000209050919050565b6000815461441081613d65565b61441a8186613f4d565b94506001821660008114614435576001811461444657614479565b60ff19831686528186019350614479565b61444f856143ee565b60005b8381101561447157815481890152600182019150602081019050614452565b838801955050505b50505092915050565b600061448f828587613f58565b915061449a826143cb565b91506144a68284614403565b9150819050949350505050565b60006144bf8286614403565b91506144cb8285614290565b91506144d78284614403565b9150819050949350505050565b7f7b226e616d65223a202200000000000000000000000000000000000000000000600082015250565b600061451a600a83613f4d565b9150614525826144e4565b600a82019050919050565b7f222c20226465736372697074696f6e223a20224120646f6d61696e206f6e207460008201527f686520416374206e616d652073657276696365222c2022696d616765223a202260208201527f646174613a696d6167652f7376672b786d6c3b6261736536342c000000000000604082015250565b60006145b2605a83613f4d565b91506145bd82614530565b605a82019050919050565b7f222c226c656e677468223a220000000000000000000000000000000000000000600082015250565b60006145fe600c83613f4d565b9150614609826145c8565b600c82019050919050565b7f227d000000000000000000000000000000000000000000000000000000000000600082015250565b600061464a600283613f4d565b915061465582614614565b600282019050919050565b600061466b8261450d565b91506146778286614290565b9150614682826145a5565b915061468e8285614290565b9150614699826145f1565b91506146a58284614290565b91506146b08261463d565b9150819050949350505050565b7f646174613a6170706c69636174696f6e2f6a736f6e3b6261736536342c000000600082015250565b60006146f3601d83613f4d565b91506146fe826146bd565b601d82019050919050565b6000614714826146e6565b91506147208284614290565b915081905092915050565b7f4e487b7100000000000000000000000000000000000000000000000000000000600052603260045260246000fd5b7f4e487b7100000000000000000000000000000000000000000000000000000000600052601160045260246000fd5b60006147948261357b565b91507fffffffffffffffffffffffffffffffffffffffffffffffffffffffffffffffff8214156147c7576147c661475a565b5b600182019050919050565b600060408201905081810360008301526147ec8185613520565b905081810360208301526148008184613520565b90509392505050565b7f4552433732313a206f70657261746f7220717565727920666f72206e6f6e657860008201527f697374656e7420746f6b656e0000000000000000000000000000000000000000602082015250565b6000614865602c836134cb565b915061487082614809565b604082019050919050565b6000602082019050818103600083015261489481614858565b9050919050565b7f4552433732313a207472616e736665722066726f6d20696e636f72726563742060008201527f6f776e6572000000000000000000000000000000000000000000000000000000602082015250565b60006148f76025836134cb565b91506149028261489b565b604082019050919050565b60006020820190508181036000830152614926816148ea565b9050919050565b7f4552433732313a207472616e7366657220746f20746865207a65726f2061646460008201527f7265737300000000000000000000000000000000000000000000000000000000602082015250565b60006149896024836134cb565b91506149948261492d565b604082019050919050565b600060208201905081810360008301526149b88161497c565b9050919050565b60006149ca8261357b565b91506149d58361357b565b9250828210156149e8576149e761475a565b5b828203905092915050565b60006149fe8261357b565b9150614a098361357b565b9250827fffffffffffffffffffffffffffffffffffffffffffffffffffffffffffffffff03821115614a3e57614a3d61475a565b5b828201905092915050565b7f4552433732313a20617070726f766520746f2063616c6c657200000000000000600082015250565b6000614a7f6019836134cb565b9150614a8a82614a49565b602082019050919050565b60006020820190508181036000830152614aae81614a72565b9050919050565b7f4552433732313a207472616e7366657220746f206e6f6e20455243373231526560008201527f63656976657220696d706c656d656e7465720000000000000000000000000000602082015250565b6000614b116032836134cb565b9150614b1c82614ab5565b604082019050919050565b60006020820190508181036000830152614b4081614b04565b9050919050565b7f4552433732314d657461646174613a2055524920717565727920666f72206e6f60008201527f6e6578697374656e7420746f6b656e0000000000000000000000000000000000602082015250565b6000614ba3602f836134cb565b9150614bae82614b47565b604082019050919050565b60006020820190508181036000830152614bd281614b96565b9050919050565b7f4e487b7100000000000000000000000000000000000000000000000000000000600052601260045260246000fd5b6000614c138261357b565b9150614c1e8361357b565b925082614c2e57614c2d614bd9565b5b828204905092915050565b6000614c448261357b565b9150614c4f8361357b565b925082614c5f57614c5e614bd9565b5b828206905092915050565b60006080820190508181036000830152614c848187613520565b90508181036020830152614c988186613520565b90508181036040830152614cac8185613520565b9050614cbb6060830184613951565b95945050505050565b6000614ccf8261357b565b9150614cda8361357b565b9250817fffffffffffffffffffffffffffffffffffffffffffffffffffffffffffffffff0483118215151615614d1357614d1261475a565b5b828202905092915050565b7f45524337323155524953746f726167653a2055524920736574206f66206e6f6e60008201527f6578697374656e7420746f6b656e000000000000000000000000000000000000602082015250565b6000614d7a602e836134cb565b9150614d8582614d1e565b604082019050919050565b60006020820190508181036000830152614da981614d6d565b9050919050565b60006040820190508181036000830152614dca8185613520565b9050614dd96020830184613610565b9392505050565b60006060820190508181036000830152614dfa8186613520565b9050614e096020830185613951565b8181036040830152614e1b8184613520565b9050949350505050565b600081519050919050565b600082825260208201905092915050565b6000614e4c82614e25565b614e568185614e30565b9350614e668185602086016134dc565b614e6f8161350f565b840191505092915050565b6000608082019050614e8f6000830187613610565b614e9c6020830186613610565b614ea96040830185613951565b8181036060830152614ebb8184614e41565b905095945050505050565b600081519050614ed581613431565b92915050565b600060208284031215614ef157614ef06133fb565b5b6000614eff84828501614ec6565b91505092915050565b7f4552433732313a206d696e7420746f20746865207a65726f2061646472657373600082015250565b6000614f3e6020836134cb565b9150614f4982614f08565b602082019050919050565b60006020820190508181036000830152614f6d81614f31565b9050919050565b7f4552433732313a20746f6b656e20616c7265616479206d696e74656400000000600082015250565b6000614faa601c836134cb565b9150614fb582614f74565b602082019050919050565b60006020820190508181036000830152614fd981614f9d565b905091905056fe0a2d2d2d2d2d2d2d2d2d2d2d2d2d2d2d2d2d2d2d2d2d2d2d2d2d2d2d2d2d2d2d2d2d2d2d2d2d2d2d2d2d2d2d2d2d2d2d2d2d2d2d2d2d2d2d2d5265676973746572696e672025732e2573206f6e2074686520636f6e7472616374207769746820746f6b656e49442025642d2d2d2d2d2d2d2d2d2d2d2d2d2d2d2d2d2d2d2d2d2d2d2d2d2d2d2d2d2d2d2d2d2d2d2d2d2d2d2d2d2d2d2d2d2d2d2d2d2d2d2d2d2d2d2d0a4142434445464748494a4b4c4d4e4f505152535455565758595a6162636465666768696a6b6c6d6e6f707172737475767778797a303132333435363738392b2f47657474696e6720616c6c2072656769737465726564206e616d65732066726f6d20636f6e7472616374a2646970667358221220eddd90cc7c3fb770d480d95162109757b52d35f94c1ca2c258c54fee86872ebc64736f6c634300080a00333c73766720786d6c6e733d22687474703a2f2f7777772e77332e6f72672f323030302f737667222077696474683d2232373022206865696768743d22323730222066696c6c3d226e6f6e65223e3c706174682066696c6c3d2275726c282342292220643d224d302030683237307632373048307a222f3e3c646566733e3c66696c7465722069643d22412220636f6c6f722d696e746572706f6c6174696f6e2d66696c746572733d2273524742222066696c746572556e6974733d227573657253706163654f6e55736522206865696768743d22323730222077696474683d22323730223e3c666544726f70536861646f772064783d2230222064793d22312220737464446576696174696f6e3d22322220666c6f6f642d6f7061636974793d222e323235222077696474683d223230302522206865696768743d2232303025222f3e3c2f66696c7465723e3c2f646566733e3c7061746820643d224d37322e3836332034322e393439632d2e3636382d2e3338372d312e3432362d2e35392d322e3139372d2e3539732d312e3532392e3230342d322e3139372e35396c2d31302e30383120362e3033322d362e383520332e3933342d31302e30383120362e303332632d2e3636382e3338372d312e3432362e35392d322e3139372e3539732d312e3532392d2e3230342d322e3139372d2e35396c2d382e3031332d342e37323161342e353220342e35322030203020312d312e3538392d312e363136632d2e3338342d2e3636352d2e3539342d312e3431382d2e3630382d322e313837762d392e3331632d2e3031332d2e3737352e3138352d312e3533382e3537322d322e32303861342e323520342e323520302030203120312e3632352d312e3539356c372e3838342d342e3539632e3636382d2e33383720312e3432362d2e353920322e3139372d2e353973312e3532392e32303420322e3139372e35396c372e38383420342e353961342e353220342e353220302030203120312e35383920312e363136632e3338342e3636352e35393420312e3431382e36303820322e31383776362e3033326c362e38352d342e303635762d362e303332632e3031332d2e3737352d2e3138352d312e3533382d2e3537322d322e32303861342e323520342e32352030203020302d312e3632352d312e3539354c34312e3435362032342e3539632d2e3636382d2e3338372d312e3432362d2e35392d322e3139372d2e3539732d312e3532392e3230342d322e3139372e35396c2d31342e38363420382e36353561342e323520342e32352030203020302d312e36323520312e353935632d2e3338372e36372d2e35383520312e3433342d2e35373220322e3230387631372e343431632d2e3031332e3737352e31383520312e3533382e35373220322e32303861342e323520342e323520302030203020312e36323520312e3539356c31342e38363420382e363535632e3636382e33383720312e3432362e353920322e3139372e353973312e3532392d2e32303420322e3139372d2e35396c31302e3038312d352e39303120362e38352d342e3036352031302e3038312d352e393031632e3636382d2e33383720312e3432362d2e353920322e3139372d2e353973312e3532392e32303420322e3139372e35396c372e38383420342e353961342e353220342e353220302030203120312e35383920312e363136632e3338342e3636352e35393420312e3431382e36303820322e31383776392e333131632e3031332e3737352d2e31383520312e3533382d2e35373220322e32303861342e323520342e32352030203020312d312e36323520312e3539356c2d372e38383420342e373231632d2e3636382e3338372d312e3432362e35392d322e3139372e3539732d312e3532392d2e3230342d322e3139372d2e35396c2d372e3838342d342e353961342e353220342e35322030203020312d312e3538392d312e363136632d2e3338352d2e3636352d2e3539342d312e3431382d2e3630382d322e313837762d362e3033326c2d362e383520342e30363576362e303332632d2e3031332e3737352e31383520312e3533382e35373220322e32303861342e323520342e323520302030203020312e36323520312e3539356c31342e38363420382e363535632e3636382e33383720312e3432362e353920322e3139372e353973312e3532392d2e32303420322e3139372d2e35396c31342e3836342d382e363535632e3635372d2e33393420312e3230342d2e393520312e3538392d312e363136732e3539342d312e3431382e3630392d322e3138375635352e353338632e3031332d2e3737352d2e3138352d312e3533382d2e3537322d322e32303861342e323520342e32352030203020302d312e3632352d312e3539356c2d31342e3939332d382e3738367a222066696c6c3d2223666666222f3e3c646566733e3c6c696e6561724772616469656e742069643d2242222078313d2230222079313d2230222078323d22323730222079323d2232373022206772616469656e74556e6974733d227573657253706163654f6e557365223e3c73746f702073746f702d636f6c6f723d22676f6c64222f3e3c73746f70206f66667365743d2231222073746f702d636f6c6f723d22726564222073746f702d6f7061636974793d222e3939222f3e3c2f6c696e6561724772616469656e743e3c2f646566733e3c7465787420783d2233322e352220793d223233312220666f6e742d73697a653d223237222066696c6c3d2223666666222066696c7465723d2275726c282341292220666f6e742d66616d696c793d22506c7573204a616b617274612053616e732c44656a6156752053616e732c4e6f746f20436f6c6f7220456d6f6a692c4170706c6520436f6c6f7220456d6f6a692c73616e732d73657269662220666f6e742d7765696768743d22626f6c64223e",
  "linkReferences": {},
  "deployedLinkReferences": {}
}